{
  "_format": "hh-sol-artifact-1",
  "contractName": "NFTMarketplace",
  "sourceName": "contracts/NFTMarketplace.sol",
  "abi": [
    {
      "inputs": [],
      "stateMutability": "nonpayable",
      "type": "constructor"
    },
    {
      "anonymous": false,
      "inputs": [
        {
          "indexed": true,
          "internalType": "address",
          "name": "owner",
          "type": "address"
        },
        {
          "indexed": true,
          "internalType": "address",
          "name": "approved",
          "type": "address"
        },
        {
          "indexed": true,
          "internalType": "uint256",
          "name": "tokenId",
          "type": "uint256"
        }
      ],
      "name": "Approval",
      "type": "event"
    },
    {
      "anonymous": false,
      "inputs": [
        {
          "indexed": true,
          "internalType": "address",
          "name": "owner",
          "type": "address"
        },
        {
          "indexed": true,
          "internalType": "address",
          "name": "operator",
          "type": "address"
        },
        {
          "indexed": false,
          "internalType": "bool",
          "name": "approved",
          "type": "bool"
        }
      ],
      "name": "ApprovalForAll",
      "type": "event"
    },
    {
      "anonymous": false,
      "inputs": [
        {
          "indexed": false,
          "internalType": "uint256",
          "name": "tokenId",
          "type": "uint256"
        },
        {
          "indexed": false,
          "internalType": "address",
          "name": "seller",
          "type": "address"
        },
        {
          "indexed": false,
          "internalType": "address",
          "name": "owner",
          "type": "address"
        },
        {
          "indexed": false,
          "internalType": "uint256",
          "name": "price",
          "type": "uint256"
        },
        {
          "indexed": false,
          "internalType": "bool",
          "name": "sold",
          "type": "bool"
        }
      ],
      "name": "MarketItemCreated",
      "type": "event"
    },
    {
      "anonymous": false,
      "inputs": [
        {
          "indexed": true,
          "internalType": "address",
          "name": "from",
          "type": "address"
        },
        {
          "indexed": true,
          "internalType": "address",
          "name": "to",
          "type": "address"
        },
        {
          "indexed": true,
          "internalType": "uint256",
          "name": "tokenId",
          "type": "uint256"
        }
      ],
      "name": "Transfer",
      "type": "event"
    },
    {
      "inputs": [
        {
          "internalType": "address",
          "name": "to",
          "type": "address"
        },
        {
          "internalType": "uint256",
          "name": "tokenId",
          "type": "uint256"
        }
      ],
      "name": "approve",
      "outputs": [],
      "stateMutability": "nonpayable",
      "type": "function"
    },
    {
      "inputs": [
        {
          "internalType": "address",
          "name": "owner",
          "type": "address"
        }
      ],
      "name": "balanceOf",
      "outputs": [
        {
          "internalType": "uint256",
          "name": "",
          "type": "uint256"
        }
      ],
      "stateMutability": "view",
      "type": "function"
    },
    {
      "inputs": [
        {
          "internalType": "uint256",
          "name": "tokenId",
          "type": "uint256"
        }
      ],
      "name": "createMarketSale",
      "outputs": [],
      "stateMutability": "payable",
      "type": "function"
    },
    {
      "inputs": [
        {
          "internalType": "string",
          "name": "tokenURI",
          "type": "string"
        },
        {
          "internalType": "uint256",
          "name": "price",
          "type": "uint256"
        }
      ],
      "name": "createToken",
      "outputs": [
        {
          "internalType": "uint256",
          "name": "",
          "type": "uint256"
        }
      ],
      "stateMutability": "payable",
      "type": "function"
    },
    {
      "inputs": [],
      "name": "fetchItemsListed",
      "outputs": [
        {
          "components": [
            {
              "internalType": "uint256",
              "name": "tokenId",
              "type": "uint256"
            },
            {
              "internalType": "address payable",
              "name": "seller",
              "type": "address"
            },
            {
              "internalType": "address payable",
              "name": "owner",
              "type": "address"
            },
            {
              "internalType": "uint256",
              "name": "price",
              "type": "uint256"
            },
            {
              "internalType": "bool",
              "name": "sold",
              "type": "bool"
            }
          ],
          "internalType": "struct NFTMarketplace.MarketItem[]",
          "name": "",
          "type": "tuple[]"
        }
      ],
      "stateMutability": "view",
      "type": "function"
    },
    {
      "inputs": [],
      "name": "fetchMarketItem",
      "outputs": [
        {
          "components": [
            {
              "internalType": "uint256",
              "name": "tokenId",
              "type": "uint256"
            },
            {
              "internalType": "address payable",
              "name": "seller",
              "type": "address"
            },
            {
              "internalType": "address payable",
              "name": "owner",
              "type": "address"
            },
            {
              "internalType": "uint256",
              "name": "price",
              "type": "uint256"
            },
            {
              "internalType": "bool",
              "name": "sold",
              "type": "bool"
            }
          ],
          "internalType": "struct NFTMarketplace.MarketItem[]",
          "name": "",
          "type": "tuple[]"
        }
      ],
      "stateMutability": "view",
      "type": "function"
    },
    {
      "inputs": [],
      "name": "fetchMyNFTs",
      "outputs": [
        {
          "components": [
            {
              "internalType": "uint256",
              "name": "tokenId",
              "type": "uint256"
            },
            {
              "internalType": "address payable",
              "name": "seller",
              "type": "address"
            },
            {
              "internalType": "address payable",
              "name": "owner",
              "type": "address"
            },
            {
              "internalType": "uint256",
              "name": "price",
              "type": "uint256"
            },
            {
              "internalType": "bool",
              "name": "sold",
              "type": "bool"
            }
          ],
          "internalType": "struct NFTMarketplace.MarketItem[]",
          "name": "",
          "type": "tuple[]"
        }
      ],
      "stateMutability": "view",
      "type": "function"
    },
    {
      "inputs": [
        {
          "internalType": "uint256",
          "name": "tokenId",
          "type": "uint256"
        }
      ],
      "name": "getApproved",
      "outputs": [
        {
          "internalType": "address",
          "name": "",
          "type": "address"
        }
      ],
      "stateMutability": "view",
      "type": "function"
    },
    {
      "inputs": [],
      "name": "getListingPrice",
      "outputs": [
        {
          "internalType": "uint256",
          "name": "",
          "type": "uint256"
        }
      ],
      "stateMutability": "view",
      "type": "function"
    },
    {
      "inputs": [
        {
          "internalType": "address",
          "name": "owner",
          "type": "address"
        },
        {
          "internalType": "address",
          "name": "operator",
          "type": "address"
        }
      ],
      "name": "isApprovedForAll",
      "outputs": [
        {
          "internalType": "bool",
          "name": "",
          "type": "bool"
        }
      ],
      "stateMutability": "view",
      "type": "function"
    },
    {
      "inputs": [],
      "name": "name",
      "outputs": [
        {
          "internalType": "string",
          "name": "",
          "type": "string"
        }
      ],
      "stateMutability": "view",
      "type": "function"
    },
    {
      "inputs": [
        {
          "internalType": "uint256",
          "name": "tokenId",
          "type": "uint256"
        }
      ],
      "name": "ownerOf",
      "outputs": [
        {
          "internalType": "address",
          "name": "",
          "type": "address"
        }
      ],
      "stateMutability": "view",
      "type": "function"
    },
    {
      "inputs": [
        {
          "internalType": "uint256",
          "name": "tokenId",
          "type": "uint256"
        },
        {
          "internalType": "uint256",
          "name": "price",
          "type": "uint256"
        }
      ],
      "name": "resellToken",
      "outputs": [],
      "stateMutability": "payable",
      "type": "function"
    },
    {
      "inputs": [
        {
          "internalType": "address",
          "name": "from",
          "type": "address"
        },
        {
          "internalType": "address",
          "name": "to",
          "type": "address"
        },
        {
          "internalType": "uint256",
          "name": "tokenId",
          "type": "uint256"
        }
      ],
      "name": "safeTransferFrom",
      "outputs": [],
      "stateMutability": "nonpayable",
      "type": "function"
    },
    {
      "inputs": [
        {
          "internalType": "address",
          "name": "from",
          "type": "address"
        },
        {
          "internalType": "address",
          "name": "to",
          "type": "address"
        },
        {
          "internalType": "uint256",
          "name": "tokenId",
          "type": "uint256"
        },
        {
          "internalType": "bytes",
          "name": "_data",
          "type": "bytes"
        }
      ],
      "name": "safeTransferFrom",
      "outputs": [],
      "stateMutability": "nonpayable",
      "type": "function"
    },
    {
      "inputs": [
        {
          "internalType": "address",
          "name": "operator",
          "type": "address"
        },
        {
          "internalType": "bool",
          "name": "approved",
          "type": "bool"
        }
      ],
      "name": "setApprovalForAll",
      "outputs": [],
      "stateMutability": "nonpayable",
      "type": "function"
    },
    {
      "inputs": [
        {
          "internalType": "bytes4",
          "name": "interfaceId",
          "type": "bytes4"
        }
      ],
      "name": "supportsInterface",
      "outputs": [
        {
          "internalType": "bool",
          "name": "",
          "type": "bool"
        }
      ],
      "stateMutability": "view",
      "type": "function"
    },
    {
      "inputs": [],
      "name": "symbol",
      "outputs": [
        {
          "internalType": "string",
          "name": "",
          "type": "string"
        }
      ],
      "stateMutability": "view",
      "type": "function"
    },
    {
      "inputs": [
        {
          "internalType": "uint256",
          "name": "tokenId",
          "type": "uint256"
        }
      ],
      "name": "tokenURI",
      "outputs": [
        {
          "internalType": "string",
          "name": "",
          "type": "string"
        }
      ],
      "stateMutability": "view",
      "type": "function"
    },
    {
      "inputs": [
        {
          "internalType": "address",
          "name": "from",
          "type": "address"
        },
        {
          "internalType": "address",
          "name": "to",
          "type": "address"
        },
        {
          "internalType": "uint256",
          "name": "tokenId",
          "type": "uint256"
        }
      ],
      "name": "transferFrom",
      "outputs": [],
      "stateMutability": "nonpayable",
      "type": "function"
    },
    {
      "inputs": [
        {
          "internalType": "uint256",
          "name": "_listingPrice",
          "type": "uint256"
        }
      ],
      "name": "updateListingPrice",
      "outputs": [],
      "stateMutability": "payable",
      "type": "function"
    }
  ],
  "bytecode": "0x60806040526658d15e176280006009553480156200001c57600080fd5b506040518060400160405280601081526020017f4d657461766572736520546f6b656e73000000000000000000000000000000008152506040518060400160405280600481526020017f4d455454000000000000000000000000000000000000000000000000000000008152508160009080519060200190620000a192919062000104565b508060019080519060200190620000ba92919062000104565b50505033600a60006101000a81548173ffffffffffffffffffffffffffffffffffffffff021916908373ffffffffffffffffffffffffffffffffffffffff16021790555062000219565b8280546200011290620001b4565b90600052602060002090601f01602090048101928262000136576000855562000182565b82601f106200015157805160ff191683800117855562000182565b8280016001018555821562000182579182015b828111156200018157825182559160200191906001019062000164565b5b50905062000191919062000195565b5090565b5b80821115620001b057600081600090555060010162000196565b5090565b60006002820490506001821680620001cd57607f821691505b60208210811415620001e457620001e3620001ea565b5b50919050565b7f4e487b7100000000000000000000000000000000000000000000000000000000600052602260045260246000fd5b61436b80620002296000396000f3fe60806040526004361061012a5760003560e01c806370a08231116100ab578063ae677aa31161006f578063ae677aa3146103f9578063b88d4fde14610415578063be9af5361461043e578063c87b56dd1461045a578063e219fc7514610497578063e985e9c5146104b35761012a565b806370a082311461030d57806372b3b6201461034a5780638fafd0211461037a57806395d89b41146103a5578063a22cb465146103d05761012a565b8063202e3740116100f2578063202e37401461022857806323b872dd1461025357806342842e0e1461027c57806345f8fa80146102a55780636352211e146102d05761012a565b806301ffc9a71461012f57806306fdde031461016c578063081812fc14610197578063095ea7b3146101d457806312e85585146101fd575b600080fd5b34801561013b57600080fd5b5061015660048036038101906101519190612e9d565b6104f0565b6040516101639190613532565b60405180910390f35b34801561017857600080fd5b506101816105d2565b60405161018e919061354d565b60405180910390f35b3480156101a357600080fd5b506101be60048036038101906101b99190612f43565b610664565b6040516101cb91906134a9565b60405180910390f35b3480156101e057600080fd5b506101fb60048036038101906101f69190612e61565b6106e9565b005b34801561020957600080fd5b50610212610801565b60405161021f919061382f565b60405180910390f35b34801561023457600080fd5b5061023d61080b565b60405161024a9190613510565b60405180910390f35b34801561025f57600080fd5b5061027a60048036038101906102759190612d5b565b610b45565b005b34801561028857600080fd5b506102a3600480360381019061029e9190612d5b565b610ba5565b005b3480156102b157600080fd5b506102ba610bc5565b6040516102c79190613510565b60405180910390f35b3480156102dc57600080fd5b506102f760048036038101906102f29190612f43565b610eff565b60405161030491906134a9565b60405180910390f35b34801561031957600080fd5b50610334600480360381019061032f9190612cf6565b610fb1565b604051610341919061382f565b60405180910390f35b610364600480360381019061035f9190612eef565b611069565b604051610371919061382f565b60405180910390f35b34801561038657600080fd5b5061038f6110ab565b60405161039c9190613510565b60405180910390f35b3480156103b157600080fd5b506103ba611360565b6040516103c7919061354d565b60405180910390f35b3480156103dc57600080fd5b506103f760048036038101906103f29190612e25565b6113f2565b005b610413600480360381019061040e9190612f43565b611408565b005b34801561042157600080fd5b5061043c60048036038101906104379190612daa565b6114a2565b005b61045860048036038101906104539190612f43565b611504565b005b34801561046657600080fd5b50610481600480360381019061047c9190612f43565b61173c565b60405161048e919061354d565b60405180910390f35b6104b160048036038101906104ac9190612f6c565b61188e565b005b3480156104bf57600080fd5b506104da60048036038101906104d59190612d1f565b611a83565b6040516104e79190613532565b60405180910390f35b60007f80ac58cd000000000000000000000000000000000000000000000000000000007bffffffffffffffffffffffffffffffffffffffffffffffffffffffff1916827bffffffffffffffffffffffffffffffffffffffffffffffffffffffff191614806105bb57507f5b5e139f000000000000000000000000000000000000000000000000000000007bffffffffffffffffffffffffffffffffffffffffffffffffffffffff1916827bffffffffffffffffffffffffffffffffffffffffffffffffffffffff1916145b806105cb57506105ca82611b17565b5b9050919050565b6060600080546105e190613b23565b80601f016020809104026020016040519081016040528092919081815260200182805461060d90613b23565b801561065a5780601f1061062f5761010080835404028352916020019161065a565b820191906000526020600020905b81548152906001019060200180831161063d57829003601f168201915b5050505050905090565b600061066f82611b81565b6106ae576040517f08c379a00000000000000000000000000000000000000000000000000000000081526004016106a59061376f565b60405180910390fd5b6004600083815260200190815260200160002060009054906101000a900473ffffffffffffffffffffffffffffffffffffffff169050919050565b60006106f482610eff565b90508073ffffffffffffffffffffffffffffffffffffffff168373ffffffffffffffffffffffffffffffffffffffff161415610765576040517f08c379a000000000000000000000000000000000000000000000000000000000815260040161075c906137cf565b60405180910390fd5b8073ffffffffffffffffffffffffffffffffffffffff16610784611bed565b73ffffffffffffffffffffffffffffffffffffffff1614806107b357506107b2816107ad611bed565b611a83565b5b6107f2576040517f08c379a00000000000000000000000000000000000000000000000000000000081526004016107e99061366f565b60405180910390fd5b6107fc8383611bf5565b505050565b6000600954905090565b606060006108196007611cae565b905060008060005b838110156108c2573373ffffffffffffffffffffffffffffffffffffffff16600b600060018461085191906139a0565b815260200190815260200160002060020160009054906101000a900473ffffffffffffffffffffffffffffffffffffffff1673ffffffffffffffffffffffffffffffffffffffff1614156108af576001836108ac91906139a0565b92505b80806108ba90613b86565b915050610821565b5060008267ffffffffffffffff811115610905577f4e487b7100000000000000000000000000000000000000000000000000000000600052604160045260246000fd5b60405190808252806020026020018201604052801561093e57816020015b61092b612abd565b8152602001906001900390816109235790505b50905060005b83811015610b3a573373ffffffffffffffffffffffffffffffffffffffff16600b600060018461097491906139a0565b815260200190815260200160002060020160009054906101000a900473ffffffffffffffffffffffffffffffffffffffff1673ffffffffffffffffffffffffffffffffffffffff161415610b275760006001826109d191906139a0565b90506000600b60008381526020019081526020016000209050806040518060a0016040529081600082015481526020016001820160009054906101000a900473ffffffffffffffffffffffffffffffffffffffff1673ffffffffffffffffffffffffffffffffffffffff1673ffffffffffffffffffffffffffffffffffffffff1681526020016002820160009054906101000a900473ffffffffffffffffffffffffffffffffffffffff1673ffffffffffffffffffffffffffffffffffffffff1673ffffffffffffffffffffffffffffffffffffffff168152602001600382015481526020016004820160009054906101000a900460ff161515151581525050848681518110610b0a577f4e487b7100000000000000000000000000000000000000000000000000000000600052603260045260246000fd5b6020026020010181905250600185610b2291906139a0565b945050505b8080610b3290613b86565b915050610944565b508094505050505090565b610b56610b50611bed565b82611cbc565b610b95576040517f08c379a0000000000000000000000000000000000000000000000000000000008152600401610b8c9061380f565b60405180910390fd5b610ba0838383611d9a565b505050565b610bc0838383604051806020016040528060008152506114a2565b505050565b60606000610bd36007611cae565b905060008060005b83811015610c7c573373ffffffffffffffffffffffffffffffffffffffff16600b6000600184610c0b91906139a0565b815260200190815260200160002060010160009054906101000a900473ffffffffffffffffffffffffffffffffffffffff1673ffffffffffffffffffffffffffffffffffffffff161415610c6957600183610c6691906139a0565b92505b8080610c7490613b86565b915050610bdb565b5060008267ffffffffffffffff811115610cbf577f4e487b7100000000000000000000000000000000000000000000000000000000600052604160045260246000fd5b604051908082528060200260200182016040528015610cf857816020015b610ce5612abd565b815260200190600190039081610cdd5790505b50905060005b83811015610ef4573373ffffffffffffffffffffffffffffffffffffffff16600b6000600184610d2e91906139a0565b815260200190815260200160002060010160009054906101000a900473ffffffffffffffffffffffffffffffffffffffff1673ffffffffffffffffffffffffffffffffffffffff161415610ee1576000600182610d8b91906139a0565b90506000600b60008381526020019081526020016000209050806040518060a0016040529081600082015481526020016001820160009054906101000a900473ffffffffffffffffffffffffffffffffffffffff1673ffffffffffffffffffffffffffffffffffffffff1673ffffffffffffffffffffffffffffffffffffffff1681526020016002820160009054906101000a900473ffffffffffffffffffffffffffffffffffffffff1673ffffffffffffffffffffffffffffffffffffffff1673ffffffffffffffffffffffffffffffffffffffff168152602001600382015481526020016004820160009054906101000a900460ff161515151581525050848681518110610ec4577f4e487b7100000000000000000000000000000000000000000000000000000000600052603260045260246000fd5b6020026020010181905250600185610edc91906139a0565b945050505b8080610eec90613b86565b915050610cfe565b508094505050505090565b6000806002600084815260200190815260200160002060009054906101000a900473ffffffffffffffffffffffffffffffffffffffff169050600073ffffffffffffffffffffffffffffffffffffffff168173ffffffffffffffffffffffffffffffffffffffff161415610fa8576040517f08c379a0000000000000000000000000000000000000000000000000000000008152600401610f9f906136af565b60405180910390fd5b80915050919050565b60008073ffffffffffffffffffffffffffffffffffffffff168273ffffffffffffffffffffffffffffffffffffffff161415611022576040517f08c379a00000000000000000000000000000000000000000000000000000000081526004016110199061368f565b60405180910390fd5b600360008373ffffffffffffffffffffffffffffffffffffffff1673ffffffffffffffffffffffffffffffffffffffff168152602001908152602001600020549050919050565b60006110756007612001565b60006110816007611cae565b905061108d3382612017565b61109781856121f1565b6110a18184612265565b8091505092915050565b606060006110b96007611cae565b905060006110c76008611cae565b6110d16007611cae565b6110db9190613a27565b90506000808267ffffffffffffffff811115611120577f4e487b7100000000000000000000000000000000000000000000000000000000600052604160045260246000fd5b60405190808252806020026020018201604052801561115957816020015b611146612abd565b81526020019060019003908161113e5790505b50905060005b84811015611355573073ffffffffffffffffffffffffffffffffffffffff16600b600060018461118f91906139a0565b815260200190815260200160002060020160009054906101000a900473ffffffffffffffffffffffffffffffffffffffff1673ffffffffffffffffffffffffffffffffffffffff1614156113425760006001826111ec91906139a0565b90506000600b60008381526020019081526020016000209050806040518060a0016040529081600082015481526020016001820160009054906101000a900473ffffffffffffffffffffffffffffffffffffffff1673ffffffffffffffffffffffffffffffffffffffff1673ffffffffffffffffffffffffffffffffffffffff1681526020016002820160009054906101000a900473ffffffffffffffffffffffffffffffffffffffff1673ffffffffffffffffffffffffffffffffffffffff1673ffffffffffffffffffffffffffffffffffffffff168152602001600382015481526020016004820160009054906101000a900460ff161515151581525050848681518110611325577f4e487b7100000000000000000000000000000000000000000000000000000000600052603260045260246000fd5b602002602001018190525060018561133d91906139a0565b945050505b808061134d90613b86565b91505061115f565b508094505050505090565b60606001805461136f90613b23565b80601f016020809104026020016040519081016040528092919081815260200182805461139b90613b23565b80156113e85780601f106113bd576101008083540402835291602001916113e8565b820191906000526020600020905b8154815290600101906020018083116113cb57829003601f168201915b5050505050905090565b6114046113fd611bed565b8383612469565b5050565b3373ffffffffffffffffffffffffffffffffffffffff16600a60009054906101000a900473ffffffffffffffffffffffffffffffffffffffff1673ffffffffffffffffffffffffffffffffffffffff1614611498576040517f08c379a000000000000000000000000000000000000000000000000000000000815260040161148f906135ef565b60405180910390fd5b8060098190555050565b6114b36114ad611bed565b83611cbc565b6114f2576040517f08c379a00000000000000000000000000000000000000000000000000000000081526004016114e99061380f565b60405180910390fd5b6114fe848484846125d6565b50505050565b6000600b6000838152602001908152602001600020600301549050803414611561576040517f08c379a0000000000000000000000000000000000000000000000000000000008152600401611558906136ef565b60405180910390fd5b33600b600084815260200190815260200160002060020160006101000a81548173ffffffffffffffffffffffffffffffffffffffff021916908373ffffffffffffffffffffffffffffffffffffffff1602179055506001600b600084815260200190815260200160002060040160006101000a81548160ff0219169083151502179055506000600b600084815260200190815260200160002060010160006101000a81548173ffffffffffffffffffffffffffffffffffffffff021916908373ffffffffffffffffffffffffffffffffffffffff1602179055506116456008612001565b611650303384611d9a565b600a60009054906101000a900473ffffffffffffffffffffffffffffffffffffffff1673ffffffffffffffffffffffffffffffffffffffff166108fc6009549081150290604051600060405180830381858888f193505050501580156116ba573d6000803e3d6000fd5b50600b600083815260200190815260200160002060010160009054906101000a900473ffffffffffffffffffffffffffffffffffffffff1673ffffffffffffffffffffffffffffffffffffffff166108fc349081150290604051600060405180830381858888f19350505050158015611737573d6000803e3d6000fd5b505050565b606061174782611b81565b611786576040517f08c379a000000000000000000000000000000000000000000000000000000000815260040161177d9061372f565b60405180910390fd5b60006006600084815260200190815260200160002080546117a690613b23565b80601f01602080910402602001604051908101604052809291908181526020018280546117d290613b23565b801561181f5780601f106117f45761010080835404028352916020019161181f565b820191906000526020600020905b81548152906001019060200180831161180257829003601f168201915b505050505090506000611830612632565b9050600081511415611846578192505050611889565b60008251111561187b578082604051602001611863929190613485565b60405160208183030381529060405292505050611889565b61188484612649565b925050505b919050565b3373ffffffffffffffffffffffffffffffffffffffff16600b600084815260200190815260200160002060020160009054906101000a900473ffffffffffffffffffffffffffffffffffffffff1673ffffffffffffffffffffffffffffffffffffffff1614611932576040517f08c379a00000000000000000000000000000000000000000000000000000000081526004016119299061374f565b60405180910390fd5b6009543414611976576040517f08c379a000000000000000000000000000000000000000000000000000000000815260040161196d906137ef565b60405180910390fd5b6000600b600084815260200190815260200160002060040160006101000a81548160ff02191690831515021790555080600b60008481526020019081526020016000206003018190555033600b600084815260200190815260200160002060010160006101000a81548173ffffffffffffffffffffffffffffffffffffffff021916908373ffffffffffffffffffffffffffffffffffffffff16021790555030600b600084815260200190815260200160002060020160006101000a81548173ffffffffffffffffffffffffffffffffffffffff021916908373ffffffffffffffffffffffffffffffffffffffff160217905550611a7460086126f0565b611a7f333084611d9a565b5050565b6000600560008473ffffffffffffffffffffffffffffffffffffffff1673ffffffffffffffffffffffffffffffffffffffff16815260200190815260200160002060008373ffffffffffffffffffffffffffffffffffffffff1673ffffffffffffffffffffffffffffffffffffffff16815260200190815260200160002060009054906101000a900460ff16905092915050565b60007f01ffc9a7000000000000000000000000000000000000000000000000000000007bffffffffffffffffffffffffffffffffffffffffffffffffffffffff1916827bffffffffffffffffffffffffffffffffffffffffffffffffffffffff1916149050919050565b60008073ffffffffffffffffffffffffffffffffffffffff166002600084815260200190815260200160002060009054906101000a900473ffffffffffffffffffffffffffffffffffffffff1673ffffffffffffffffffffffffffffffffffffffff1614159050919050565b600033905090565b816004600083815260200190815260200160002060006101000a81548173ffffffffffffffffffffffffffffffffffffffff021916908373ffffffffffffffffffffffffffffffffffffffff160217905550808273ffffffffffffffffffffffffffffffffffffffff16611c6883610eff565b73ffffffffffffffffffffffffffffffffffffffff167f8c5be1e5ebec7d5bd14f71427d1e84f3dd0314c0f7b2291e5b200ac8c7c3b92560405160405180910390a45050565b600081600001549050919050565b6000611cc782611b81565b611d06576040517f08c379a0000000000000000000000000000000000000000000000000000000008152600401611cfd9061364f565b60405180910390fd5b6000611d1183610eff565b90508073ffffffffffffffffffffffffffffffffffffffff168473ffffffffffffffffffffffffffffffffffffffff161480611d8057508373ffffffffffffffffffffffffffffffffffffffff16611d6884610664565b73ffffffffffffffffffffffffffffffffffffffff16145b80611d915750611d908185611a83565b5b91505092915050565b8273ffffffffffffffffffffffffffffffffffffffff16611dba82610eff565b73ffffffffffffffffffffffffffffffffffffffff1614611e10576040517f08c379a0000000000000000000000000000000000000000000000000000000008152600401611e07906135af565b60405180910390fd5b600073ffffffffffffffffffffffffffffffffffffffff168273ffffffffffffffffffffffffffffffffffffffff161415611e80576040517f08c379a0000000000000000000000000000000000000000000000000000000008152600401611e779061360f565b60405180910390fd5b611e8b83838361274c565b611e96600082611bf5565b6001600360008573ffffffffffffffffffffffffffffffffffffffff1673ffffffffffffffffffffffffffffffffffffffff1681526020019081526020016000206000828254611ee69190613a27565b925050819055506001600360008473ffffffffffffffffffffffffffffffffffffffff1673ffffffffffffffffffffffffffffffffffffffff1681526020019081526020016000206000828254611f3d91906139a0565b92505081905550816002600083815260200190815260200160002060006101000a81548173ffffffffffffffffffffffffffffffffffffffff021916908373ffffffffffffffffffffffffffffffffffffffff160217905550808273ffffffffffffffffffffffffffffffffffffffff168473ffffffffffffffffffffffffffffffffffffffff167fddf252ad1be2c89b69c2b068fc378daa952ba7f163c4a11628f55a4df523b3ef60405160405180910390a4611ffc838383612751565b505050565b6001816000016000828254019250508190555050565b600073ffffffffffffffffffffffffffffffffffffffff168273ffffffffffffffffffffffffffffffffffffffff161415612087576040517f08c379a000000000000000000000000000000000000000000000000000000000815260040161207e9061370f565b60405180910390fd5b61209081611b81565b156120d0576040517f08c379a00000000000000000000000000000000000000000000000000000000081526004016120c7906135cf565b60405180910390fd5b6120dc6000838361274c565b6001600360008473ffffffffffffffffffffffffffffffffffffffff1673ffffffffffffffffffffffffffffffffffffffff168152602001908152602001600020600082825461212c91906139a0565b92505081905550816002600083815260200190815260200160002060006101000a81548173ffffffffffffffffffffffffffffffffffffffff021916908373ffffffffffffffffffffffffffffffffffffffff160217905550808273ffffffffffffffffffffffffffffffffffffffff16600073ffffffffffffffffffffffffffffffffffffffff167fddf252ad1be2c89b69c2b068fc378daa952ba7f163c4a11628f55a4df523b3ef60405160405180910390a46121ed60008383612751565b5050565b6121fa82611b81565b612239576040517f08c379a0000000000000000000000000000000000000000000000000000000008152600401612230906136cf565b60405180910390fd5b80600660008481526020019081526020016000209080519060200190612260929190612b1a565b505050565b600081116122a8576040517f08c379a000000000000000000000000000000000000000000000000000000000815260040161229f906137af565b60405180910390fd5b60095434146122ec576040517f08c379a00000000000000000000000000000000000000000000000000000000081526004016122e3906137ef565b60405180910390fd5b6040518060a001604052808381526020013373ffffffffffffffffffffffffffffffffffffffff1681526020013073ffffffffffffffffffffffffffffffffffffffff16815260200182815260200160001515815250600b60008481526020019081526020016000206000820151816000015560208201518160010160006101000a81548173ffffffffffffffffffffffffffffffffffffffff021916908373ffffffffffffffffffffffffffffffffffffffff16021790555060408201518160020160006101000a81548173ffffffffffffffffffffffffffffffffffffffff021916908373ffffffffffffffffffffffffffffffffffffffff1602179055506060820151816003015560808201518160040160006101000a81548160ff021916908315150217905550905050612425333084611d9a565b7fb640004f1d14576d0c209e240cad0410e0d8c0c33a09375861fbadae2588a98d82333084600060405161245d95949392919061384a565b60405180910390a15050565b8173ffffffffffffffffffffffffffffffffffffffff168373ffffffffffffffffffffffffffffffffffffffff1614156124d8576040517f08c379a00000000000000000000000000000000000000000000000000000000081526004016124cf9061362f565b60405180910390fd5b80600560008573ffffffffffffffffffffffffffffffffffffffff1673ffffffffffffffffffffffffffffffffffffffff16815260200190815260200160002060008473ffffffffffffffffffffffffffffffffffffffff1673ffffffffffffffffffffffffffffffffffffffff16815260200190815260200160002060006101000a81548160ff0219169083151502179055508173ffffffffffffffffffffffffffffffffffffffff168373ffffffffffffffffffffffffffffffffffffffff167f17307eab39ab6107e8899845ad3d59bd9653f200f220920489ca2b5937696c31836040516125c99190613532565b60405180910390a3505050565b6125e1848484611d9a565b6125ed84848484612756565b61262c576040517f08c379a00000000000000000000000000000000000000000000000000000000081526004016126239061358f565b60405180910390fd5b50505050565b606060405180602001604052806000815250905090565b606061265482611b81565b612693576040517f08c379a000000000000000000000000000000000000000000000000000000000815260040161268a9061378f565b60405180910390fd5b600061269d612632565b905060008151116126bd57604051806020016040528060008152506126e8565b806126c7846128ed565b6040516020016126d8929190613485565b6040516020818303038152906040525b915050919050565b6000816000015490506000811161273c576040517f08c379a00000000000000000000000000000000000000000000000000000000081526004016127339061356f565b60405180910390fd5b6001810382600001819055505050565b505050565b505050565b60006127778473ffffffffffffffffffffffffffffffffffffffff16612a9a565b156128e0578373ffffffffffffffffffffffffffffffffffffffff1663150b7a026127a0611bed565b8786866040518563ffffffff1660e01b81526004016127c294939291906134c4565b602060405180830381600087803b1580156127dc57600080fd5b505af192505050801561280d57506040513d601f19601f8201168201806040525081019061280a9190612ec6565b60015b612890573d806000811461283d576040519150601f19603f3d011682016040523d82523d6000602084013e612842565b606091505b50600081511415612888576040517f08c379a000000000000000000000000000000000000000000000000000000000815260040161287f9061358f565b60405180910390fd5b805181602001fd5b63150b7a0260e01b7bffffffffffffffffffffffffffffffffffffffffffffffffffffffff1916817bffffffffffffffffffffffffffffffffffffffffffffffffffffffff1916149150506128e5565b600190505b949350505050565b60606000821415612935576040518060400160405280600181526020017f30000000000000000000000000000000000000000000000000000000000000008152509050612a95565b600082905060005b6000821461296757808061295090613b86565b915050600a8261296091906139f6565b915061293d565b60008167ffffffffffffffff8111156129a9577f4e487b7100000000000000000000000000000000000000000000000000000000600052604160045260246000fd5b6040519080825280601f01601f1916602001820160405280156129db5781602001600182028036833780820191505090505b5090505b60008514612a8e576001826129f49190613a27565b9150600a85612a039190613bcf565b6030612a0f91906139a0565b60f81b818381518110612a4b577f4e487b7100000000000000000000000000000000000000000000000000000000600052603260045260246000fd5b60200101907effffffffffffffffffffffffffffffffffffffffffffffffffffffffffffff1916908160001a905350600a85612a8791906139f6565b94506129df565b8093505050505b919050565b6000808273ffffffffffffffffffffffffffffffffffffffff163b119050919050565b6040518060a0016040528060008152602001600073ffffffffffffffffffffffffffffffffffffffff168152602001600073ffffffffffffffffffffffffffffffffffffffff168152602001600081526020016000151581525090565b828054612b2690613b23565b90600052602060002090601f016020900481019282612b485760008555612b8f565b82601f10612b6157805160ff1916838001178555612b8f565b82800160010185558215612b8f579182015b82811115612b8e578251825591602001919060010190612b73565b5b509050612b9c9190612ba0565b5090565b5b80821115612bb9576000816000905550600101612ba1565b5090565b6000612bd0612bcb846138c2565b61389d565b905082815260208101848484011115612be857600080fd5b612bf3848285613ae1565b509392505050565b6000612c0e612c09846138f3565b61389d565b905082815260208101848484011115612c2657600080fd5b612c31848285613ae1565b509392505050565b600081359050612c48816142d9565b92915050565b600081359050612c5d816142f0565b92915050565b600081359050612c7281614307565b92915050565b600081519050612c8781614307565b92915050565b600082601f830112612c9e57600080fd5b8135612cae848260208601612bbd565b91505092915050565b600082601f830112612cc857600080fd5b8135612cd8848260208601612bfb565b91505092915050565b600081359050612cf08161431e565b92915050565b600060208284031215612d0857600080fd5b6000612d1684828501612c39565b91505092915050565b60008060408385031215612d3257600080fd5b6000612d4085828601612c39565b9250506020612d5185828601612c39565b9150509250929050565b600080600060608486031215612d7057600080fd5b6000612d7e86828701612c39565b9350506020612d8f86828701612c39565b9250506040612da086828701612ce1565b9150509250925092565b60008060008060808587031215612dc057600080fd5b6000612dce87828801612c39565b9450506020612ddf87828801612c39565b9350506040612df087828801612ce1565b925050606085013567ffffffffffffffff811115612e0d57600080fd5b612e1987828801612c8d565b91505092959194509250565b60008060408385031215612e3857600080fd5b6000612e4685828601612c39565b9250506020612e5785828601612c4e565b9150509250929050565b60008060408385031215612e7457600080fd5b6000612e8285828601612c39565b9250506020612e9385828601612ce1565b9150509250929050565b600060208284031215612eaf57600080fd5b6000612ebd84828501612c63565b91505092915050565b600060208284031215612ed857600080fd5b6000612ee684828501612c78565b91505092915050565b60008060408385031215612f0257600080fd5b600083013567ffffffffffffffff811115612f1c57600080fd5b612f2885828601612cb7565b9250506020612f3985828601612ce1565b9150509250929050565b600060208284031215612f5557600080fd5b6000612f6384828501612ce1565b91505092915050565b60008060408385031215612f7f57600080fd5b6000612f8d85828601612ce1565b9250506020612f9e85828601612ce1565b9150509250929050565b6000612fb483836133ff565b60a08301905092915050565b612fc981613a6d565b82525050565b612fd881613a5b565b82525050565b6000612fe982613934565b612ff38185613962565b9350612ffe83613924565b8060005b8381101561302f5781516130168882612fa8565b975061302183613955565b925050600181019050613002565b5085935050505092915050565b61304581613a7f565b82525050565b61305481613a7f565b82525050565b60006130658261393f565b61306f8185613973565b935061307f818560208601613af0565b61308881613cbc565b840191505092915050565b600061309e8261394a565b6130a88185613984565b93506130b8818560208601613af0565b6130c181613cbc565b840191505092915050565b60006130d78261394a565b6130e18185613995565b93506130f1818560208601613af0565b80840191505092915050565b600061310a601b83613984565b915061311582613ccd565b602082019050919050565b600061312d603283613984565b915061313882613cf6565b604082019050919050565b6000613150602583613984565b915061315b82613d45565b604082019050919050565b6000613173601c83613984565b915061317e82613d94565b602082019050919050565b6000613196603383613984565b91506131a182613dbd565b604082019050919050565b60006131b9602483613984565b91506131c482613e0c565b604082019050919050565b60006131dc601983613984565b91506131e782613e5b565b602082019050919050565b60006131ff602c83613984565b915061320a82613e84565b604082019050919050565b6000613222603883613984565b915061322d82613ed3565b604082019050919050565b6000613245602a83613984565b915061325082613f22565b604082019050919050565b6000613268602983613984565b915061327382613f71565b604082019050919050565b600061328b602e83613984565b915061329682613fc0565b604082019050919050565b60006132ae604083613984565b91506132b98261400f565b604082019050919050565b60006132d1602083613984565b91506132dc8261405e565b602082019050919050565b60006132f4603183613984565b91506132ff82614087565b604082019050919050565b6000613317602a83613984565b9150613322826140d6565b604082019050919050565b600061333a602c83613984565b915061334582614125565b604082019050919050565b600061335d602f83613984565b915061336882614174565b604082019050919050565b6000613380601883613984565b915061338b826141c3565b602082019050919050565b60006133a3602183613984565b91506133ae826141ec565b604082019050919050565b60006133c6602483613984565b91506133d18261423b565b604082019050919050565b60006133e9603183613984565b91506133f48261428a565b604082019050919050565b60a0820160008201516134156000850182613467565b5060208201516134286020850182612fc0565b50604082015161343b6040850182612fc0565b50606082015161344e6060850182613467565b506080820151613461608085018261303c565b50505050565b61347081613ad7565b82525050565b61347f81613ad7565b82525050565b600061349182856130cc565b915061349d82846130cc565b91508190509392505050565b60006020820190506134be6000830184612fcf565b92915050565b60006080820190506134d96000830187612fcf565b6134e66020830186612fcf565b6134f36040830185613476565b8181036060830152613505818461305a565b905095945050505050565b6000602082019050818103600083015261352a8184612fde565b905092915050565b6000602082019050613547600083018461304b565b92915050565b600060208201905081810360008301526135678184613093565b905092915050565b60006020820190508181036000830152613588816130fd565b9050919050565b600060208201905081810360008301526135a881613120565b9050919050565b600060208201905081810360008301526135c881613143565b9050919050565b600060208201905081810360008301526135e881613166565b9050919050565b6000602082019050818103600083015261360881613189565b9050919050565b60006020820190508181036000830152613628816131ac565b9050919050565b60006020820190508181036000830152613648816131cf565b9050919050565b60006020820190508181036000830152613668816131f2565b9050919050565b6000602082019050818103600083015261368881613215565b9050919050565b600060208201905081810360008301526136a881613238565b9050919050565b600060208201905081810360008301526136c88161325b565b9050919050565b600060208201905081810360008301526136e88161327e565b9050919050565b60006020820190508181036000830152613708816132a1565b9050919050565b60006020820190508181036000830152613728816132c4565b9050919050565b60006020820190508181036000830152613748816132e7565b9050919050565b600060208201905081810360008301526137688161330a565b9050919050565b600060208201905081810360008301526137888161332d565b9050919050565b600060208201905081810360008301526137a881613350565b9050919050565b600060208201905081810360008301526137c881613373565b9050919050565b600060208201905081810360008301526137e881613396565b9050919050565b60006020820190508181036000830152613808816133b9565b9050919050565b60006020820190508181036000830152613828816133dc565b9050919050565b60006020820190506138446000830184613476565b92915050565b600060a08201905061385f6000830188613476565b61386c6020830187612fcf565b6138796040830186612fcf565b6138866060830185613476565b613893608083018461304b565b9695505050505050565b60006138a76138b8565b90506138b38282613b55565b919050565b6000604051905090565b600067ffffffffffffffff8211156138dd576138dc613c8d565b5b6138e682613cbc565b9050602081019050919050565b600067ffffffffffffffff82111561390e5761390d613c8d565b5b61391782613cbc565b9050602081019050919050565b6000819050602082019050919050565b600081519050919050565b600081519050919050565b600081519050919050565b6000602082019050919050565b600082825260208201905092915050565b600082825260208201905092915050565b600082825260208201905092915050565b600081905092915050565b60006139ab82613ad7565b91506139b683613ad7565b9250827fffffffffffffffffffffffffffffffffffffffffffffffffffffffffffffffff038211156139eb576139ea613c00565b5b828201905092915050565b6000613a0182613ad7565b9150613a0c83613ad7565b925082613a1c57613a1b613c2f565b5b828204905092915050565b6000613a3282613ad7565b9150613a3d83613ad7565b925082821015613a5057613a4f613c00565b5b828203905092915050565b6000613a6682613ab7565b9050919050565b6000613a7882613ab7565b9050919050565b60008115159050919050565b60007fffffffff0000000000000000000000000000000000000000000000000000000082169050919050565b600073ffffffffffffffffffffffffffffffffffffffff82169050919050565b6000819050919050565b82818337600083830152505050565b60005b83811015613b0e578082015181840152602081019050613af3565b83811115613b1d576000848401525b50505050565b60006002820490506001821680613b3b57607f821691505b60208210811415613b4f57613b4e613c5e565b5b50919050565b613b5e82613cbc565b810181811067ffffffffffffffff82111715613b7d57613b7c613c8d565b5b80604052505050565b6000613b9182613ad7565b91507fffffffffffffffffffffffffffffffffffffffffffffffffffffffffffffffff821415613bc457613bc3613c00565b5b600182019050919050565b6000613bda82613ad7565b9150613be583613ad7565b925082613bf557613bf4613c2f565b5b828206905092915050565b7f4e487b7100000000000000000000000000000000000000000000000000000000600052601160045260246000fd5b7f4e487b7100000000000000000000000000000000000000000000000000000000600052601260045260246000fd5b7f4e487b7100000000000000000000000000000000000000000000000000000000600052602260045260246000fd5b7f4e487b7100000000000000000000000000000000000000000000000000000000600052604160045260246000fd5b6000601f19601f8301169050919050565b7f436f756e7465723a2064656372656d656e74206f766572666c6f770000000000600082015250565b7f4552433732313a207472616e7366657220746f206e6f6e20455243373231526560008201527f63656976657220696d706c656d656e7465720000000000000000000000000000602082015250565b7f4552433732313a207472616e736665722066726f6d20696e636f72726563742060008201527f6f776e6572000000000000000000000000000000000000000000000000000000602082015250565b7f4552433732313a20746f6b656e20616c7265616479206d696e74656400000000600082015250565b7f4f6e6c79206d61726b6574706c616365206f776e65722063616e20757064617460008201527f6520746865206c697374696e6720707269636500000000000000000000000000602082015250565b7f4552433732313a207472616e7366657220746f20746865207a65726f2061646460008201527f7265737300000000000000000000000000000000000000000000000000000000602082015250565b7f4552433732313a20617070726f766520746f2063616c6c657200000000000000600082015250565b7f4552433732313a206f70657261746f7220717565727920666f72206e6f6e657860008201527f697374656e7420746f6b656e0000000000000000000000000000000000000000602082015250565b7f4552433732313a20617070726f76652063616c6c6572206973206e6f74206f7760008201527f6e6572206e6f7220617070726f76656420666f7220616c6c0000000000000000602082015250565b7f4552433732313a2062616c616e636520717565727920666f7220746865207a6560008201527f726f206164647265737300000000000000000000000000000000000000000000602082015250565b7f4552433732313a206f776e657220717565727920666f72206e6f6e657869737460008201527f656e7420746f6b656e0000000000000000000000000000000000000000000000602082015250565b7f45524337323155524953746f726167653a2055524920736574206f66206e6f6e60008201527f6578697374656e7420746f6b656e000000000000000000000000000000000000602082015250565b7f506c65617365207375626d6974207468652061736b696e67207072696365206960008201527f6e206f7264657220746f20636f6d706c65746520746865207075726368617365602082015250565b7f4552433732313a206d696e7420746f20746865207a65726f2061646472657373600082015250565b7f45524337323155524953746f726167653a2055524920717565727920666f722060008201527f6e6f6e6578697374656e7420746f6b656e000000000000000000000000000000602082015250565b7f4f6e6c79206974656d206f776e65722063616e20706572666f726d207468697360008201527f206f7065726174696f6e00000000000000000000000000000000000000000000602082015250565b7f4552433732313a20617070726f76656420717565727920666f72206e6f6e657860008201527f697374656e7420746f6b656e0000000000000000000000000000000000000000602082015250565b7f4552433732314d657461646174613a2055524920717565727920666f72206e6f60008201527f6e6578697374656e7420746f6b656e0000000000000000000000000000000000602082015250565b7f5072696365206d757374206265206174206c6561737420310000000000000000600082015250565b7f4552433732313a20617070726f76616c20746f2063757272656e74206f776e6560008201527f7200000000000000000000000000000000000000000000000000000000000000602082015250565b7f5072696365206d75737420626520657175616c20746f206c697374696e67207060008201527f7269636500000000000000000000000000000000000000000000000000000000602082015250565b7f4552433732313a207472616e736665722063616c6c6572206973206e6f74206f60008201527f776e6572206e6f7220617070726f766564000000000000000000000000000000602082015250565b6142e281613a5b565b81146142ed57600080fd5b50565b6142f981613a7f565b811461430457600080fd5b50565b61431081613a8b565b811461431b57600080fd5b50565b61432781613ad7565b811461433257600080fd5b5056fea2646970667358221220a295044f9bb665a417962efc152649e87bf6060b0e836e35bf07516a5aab0dc264736f6c63430008040033",
  "linkReferences": {},
  "deployedLinkReferences": {}
}